{
  "contractName": "Pausable",
  "abi": [
    {
      "constant": true,
      "inputs": [],
      "name": "unfreezeTimestamp",
      "outputs": [
        {
          "name": "",
          "type": "uint256"
        }
      ],
      "payable": false,
      "stateMutability": "view",
      "type": "function"
    },
    {
      "constant": true,
      "inputs": [],
      "name": "paused",
      "outputs": [
        {
          "name": "",
          "type": "bool"
        }
      ],
      "payable": false,
      "stateMutability": "view",
      "type": "function"
    },
    {
      "constant": true,
      "inputs": [],
      "name": "owner",
      "outputs": [
        {
          "name": "",
          "type": "address"
        }
      ],
      "payable": false,
      "stateMutability": "view",
      "type": "function"
    },
    {
      "constant": true,
      "inputs": [],
      "name": "crowdsale",
      "outputs": [
        {
          "name": "",
          "type": "address"
        }
      ],
      "payable": false,
      "stateMutability": "view",
      "type": "function"
    },
    {
      "constant": true,
      "inputs": [
        {
          "name": "",
          "type": "address"
        }
      ],
      "name": "frozen",
      "outputs": [
        {
          "name": "",
          "type": "uint256"
        }
      ],
      "payable": false,
      "stateMutability": "view",
      "type": "function"
    },
    {
      "constant": false,
      "inputs": [
        {
          "name": "newOwner",
          "type": "address"
        }
      ],
      "name": "transferOwnership",
      "outputs": [],
      "payable": false,
      "stateMutability": "nonpayable",
      "type": "function"
    },
    {
      "inputs": [],
      "payable": false,
      "stateMutability": "nonpayable",
      "type": "constructor"
    },
    {
      "anonymous": false,
      "inputs": [],
      "name": "Pause",
      "type": "event"
    },
    {
      "anonymous": false,
      "inputs": [],
      "name": "Unpause",
      "type": "event"
    },
    {
      "anonymous": false,
      "inputs": [
        {
          "indexed": true,
          "name": "previousOwner",
          "type": "address"
        },
        {
          "indexed": true,
          "name": "newOwner",
          "type": "address"
        }
      ],
      "name": "OwnershipTransferred",
      "type": "event"
    },
    {
      "constant": false,
      "inputs": [
        {
          "name": "_unfreezeTimestamp",
          "type": "uint256"
        }
      ],
      "name": "setUnfreezeTimestamp",
      "outputs": [],
      "payable": false,
      "stateMutability": "nonpayable",
      "type": "function"
    },
    {
      "constant": false,
      "inputs": [
        {
          "name": "_owner",
          "type": "address"
        },
        {
          "name": "_incrementalAmount",
          "type": "uint256"
        }
      ],
      "name": "increaseFrozen",
      "outputs": [
        {
          "name": "",
          "type": "bool"
        }
      ],
      "payable": false,
      "stateMutability": "nonpayable",
      "type": "function"
    },
    {
      "constant": false,
      "inputs": [
        {
          "name": "_owner",
          "type": "address"
        },
        {
          "name": "_incrementalAmount",
          "type": "uint256"
        }
      ],
      "name": "decreaseFrozen",
      "outputs": [
        {
          "name": "",
          "type": "bool"
        }
      ],
      "payable": false,
      "stateMutability": "nonpayable",
      "type": "function"
    },
    {
      "constant": false,
      "inputs": [
        {
          "name": "_crowdsale",
          "type": "address"
        }
      ],
      "name": "setCrowdsale",
      "outputs": [],
      "payable": false,
      "stateMutability": "nonpayable",
      "type": "function"
    },
    {
      "constant": false,
      "inputs": [],
      "name": "pause",
      "outputs": [],
      "payable": false,
      "stateMutability": "nonpayable",
      "type": "function"
    },
    {
      "constant": false,
      "inputs": [],
      "name": "unpause",
      "outputs": [],
      "payable": false,
      "stateMutability": "nonpayable",
      "type": "function"
    }
  ],
  "bytecode": "0x606060405260008060146101000a81548160ff021916908315150217905550341561002957600080fd5b336000806101000a81548173ffffffffffffffffffffffffffffffffffffffff021916908373ffffffffffffffffffffffffffffffffffffffff160217905550624f1a004201600381905550610bd9806100846000396000f3006060604052600436106100ba576000357c0100000000000000000000000000000000000000000000000000000000900463ffffffff1680633f4ba83a146100bf5780634185fdc5146100d4578063483a20b21461012e5780635b5416ca146101675780635c975abb146101905780638456cb59146101bd5780638da5cb5b146101d25780639c1e03a014610227578063b65c26111461027c578063bfabd7541461029f578063d0516650146102f9578063f2fde38b14610346575b600080fd5b34156100ca57600080fd5b6100d261037f565b005b34156100df57600080fd5b610114600480803573ffffffffffffffffffffffffffffffffffffffff16906020019091908035906020019091905050610479565b604051808215151515815260200191505060405180910390f35b341561013957600080fd5b610165600480803573ffffffffffffffffffffffffffffffffffffffff169060200190919050506105dc565b005b341561017257600080fd5b61017a61067b565b6040518082815260200191505060405180910390f35b341561019b57600080fd5b6101a3610681565b604051808215151515815260200191505060405180910390f35b34156101c857600080fd5b6101d0610694565b005b34156101dd57600080fd5b6101e56107e8565b604051808273ffffffffffffffffffffffffffffffffffffffff1673ffffffffffffffffffffffffffffffffffffffff16815260200191505060405180910390f35b341561023257600080fd5b61023a61080d565b604051808273ffffffffffffffffffffffffffffffffffffffff1673ffffffffffffffffffffffffffffffffffffffff16815260200191505060405180910390f35b341561028757600080fd5b61029d6004808035906020019091905050610833565b005b34156102aa57600080fd5b6102df600480803573ffffffffffffffffffffffffffffffffffffffff169060200190919080359060200190919050506108a6565b604051808215151515815260200191505060405180910390f35b341561030457600080fd5b610330600480803573ffffffffffffffffffffffffffffffffffffffff16906020019091905050610a09565b6040518082815260200191505060405180910390f35b341561035157600080fd5b61037d600480803573ffffffffffffffffffffffffffffffffffffffff16906020019091905050610a21565b005b6000809054906101000a900473ffffffffffffffffffffffffffffffffffffffff1673ffffffffffffffffffffffffffffffffffffffff163373ffffffffffffffffffffffffffffffffffffffff161415156103da57600080fd5b600060149054906101000a900460ff1615156103f557600080fd5b600073ffffffffffffffffffffffffffffffffffffffff163373ffffffffffffffffffffffffffffffffffffffff161415151561043157600080fd5b60008060146101000a81548160ff0219169083151502179055507f7805862f689e2f13df9f062ff482ad3ad112aca9e0847911ed832e158c525b3360405160405180910390a1565b6000600160009054906101000a900473ffffffffffffffffffffffffffffffffffffffff1673ffffffffffffffffffffffffffffffffffffffff163373ffffffffffffffffffffffffffffffffffffffff16148061052357506000809054906101000a900473ffffffffffffffffffffffffffffffffffffffff1673ffffffffffffffffffffffffffffffffffffffff163373ffffffffffffffffffffffffffffffffffffffff16145b151561052e57600080fd5b60008211151561053d57600080fd5b61058f82600260008673ffffffffffffffffffffffffffffffffffffffff1673ffffffffffffffffffffffffffffffffffffffff16815260200190815260200160002054610b7690919063ffffffff16565b600260008573ffffffffffffffffffffffffffffffffffffffff1673ffffffffffffffffffffffffffffffffffffffff168152602001908152602001600020819055506001905092915050565b6000809054906101000a900473ffffffffffffffffffffffffffffffffffffffff1673ffffffffffffffffffffffffffffffffffffffff163373ffffffffffffffffffffffffffffffffffffffff1614151561063757600080fd5b80600160006101000a81548173ffffffffffffffffffffffffffffffffffffffff021916908373ffffffffffffffffffffffffffffffffffffffff16021790555050565b60035481565b600060149054906101000a900460ff1681565b6000809054906101000a900473ffffffffffffffffffffffffffffffffffffffff1673ffffffffffffffffffffffffffffffffffffffff163373ffffffffffffffffffffffffffffffffffffffff161415156106ef57600080fd5b600060149054906101000a900460ff1615806107585750600160009054906101000a900473ffffffffffffffffffffffffffffffffffffffff1673ffffffffffffffffffffffffffffffffffffffff163373ffffffffffffffffffffffffffffffffffffffff16145b151561076357600080fd5b600073ffffffffffffffffffffffffffffffffffffffff163373ffffffffffffffffffffffffffffffffffffffff161415151561079f57600080fd5b6001600060146101000a81548160ff0219169083151502179055507f6985a02210a168e66602d3235cb6db0e70f92b3ba4d376a33c0f3d9434bff62560405160405180910390a1565b6000809054906101000a900473ffffffffffffffffffffffffffffffffffffffff1681565b600160009054906101000a900473ffffffffffffffffffffffffffffffffffffffff1681565b6000809054906101000a900473ffffffffffffffffffffffffffffffffffffffff1673ffffffffffffffffffffffffffffffffffffffff163373ffffffffffffffffffffffffffffffffffffffff1614151561088e57600080fd5b804210151561089c57600080fd5b8060038190555050565b6000600160009054906101000a900473ffffffffffffffffffffffffffffffffffffffff1673ffffffffffffffffffffffffffffffffffffffff163373ffffffffffffffffffffffffffffffffffffffff16148061095057506000809054906101000a900473ffffffffffffffffffffffffffffffffffffffff1673ffffffffffffffffffffffffffffffffffffffff163373ffffffffffffffffffffffffffffffffffffffff16145b151561095b57600080fd5b60008211151561096a57600080fd5b6109bc82600260008673ffffffffffffffffffffffffffffffffffffffff1673ffffffffffffffffffffffffffffffffffffffff16815260200190815260200160002054610b8f90919063ffffffff16565b600260008573ffffffffffffffffffffffffffffffffffffffff1673ffffffffffffffffffffffffffffffffffffffff168152602001908152602001600020819055506001905092915050565b60026020528060005260406000206000915090505481565b6000809054906101000a900473ffffffffffffffffffffffffffffffffffffffff1673ffffffffffffffffffffffffffffffffffffffff163373ffffffffffffffffffffffffffffffffffffffff16141515610a7c57600080fd5b600073ffffffffffffffffffffffffffffffffffffffff168173ffffffffffffffffffffffffffffffffffffffff1614151515610ab857600080fd5b8073ffffffffffffffffffffffffffffffffffffffff166000809054906101000a900473ffffffffffffffffffffffffffffffffffffffff1673ffffffffffffffffffffffffffffffffffffffff167f8be0079c531659141344cd1fd0a4f28419497f9722a3daafe3b4186f6b6457e060405160405180910390a3806000806101000a81548173ffffffffffffffffffffffffffffffffffffffff021916908373ffffffffffffffffffffffffffffffffffffffff16021790555050565b6000828211151515610b8457fe5b818303905092915050565b6000808284019050838110151515610ba357fe5b80915050929150505600a165627a7a7230582060b1b71c0ec03740531ee688b5eef17b28c5ff6cde74fc2ae0868fdf695a1c190029",
  "source": "pragma solidity ^0.4.18;\r\n\r\n\r\nimport \"../ownership/Ownable.sol\";\r\nimport '../math/SafeMath.sol';\r\n\r\n/**\r\n * @title Pausable\r\n * @dev Base contract which allows children to implement an emergency stop mechanism.\r\n */\r\ncontract Pausable is Ownable {\r\n    using SafeMath for uint256;\r\n\r\n    event Pause();\r\n    event Unpause();\r\n\r\n    bool public paused = false;\r\n    address public crowdsale;\r\n\r\n    /*\r\n    * @dev Freezing certain number of tokens bought during bonus.\r\n    */\r\n    mapping (address => uint256) public frozen;\r\n    uint public unfreezeTimestamp;\r\n\r\n    function Pausable() public {\r\n        unfreezeTimestamp = now + 60 days; //default 60 days from contract deploy date as a defensive mechanism. Will be updated once the crowdsale starts.\r\n    }\r\n\r\n    function setUnfreezeTimestamp(uint _unfreezeTimestamp) onlyOwner public {\r\n        require(now < _unfreezeTimestamp);\r\n        unfreezeTimestamp = _unfreezeTimestamp;\r\n    }\r\n\r\n    function increaseFrozen(address _owner, uint256 _incrementalAmount) public returns (bool) {\r\n        require(msg.sender == crowdsale || msg.sender == owner);\r\n        require(_incrementalAmount > 0);\r\n        frozen[_owner] = frozen[_owner].add(_incrementalAmount);\r\n        return true;\r\n    }\r\n\r\n    function decreaseFrozen(address _owner, uint256 _incrementalAmount) public returns (bool) {\r\n        require(msg.sender == crowdsale || msg.sender == owner);\r\n        require(_incrementalAmount > 0);\r\n        frozen[_owner] = frozen[_owner].sub(_incrementalAmount);\r\n        return true;\r\n    }\r\n\r\n    function setCrowdsale(address _crowdsale) onlyOwner public {\r\n        crowdsale = _crowdsale;\r\n    }\r\n\r\n    /**\r\n     * @dev Modifier to make a function callable only when there are unfrozen tokens.\r\n     */\r\n    modifier frozenTransferCheck(address _to, uint256 _value, uint256 balance) {\r\n        if (now < unfreezeTimestamp) {\r\n            require(_value <= balance.sub(frozen[msg.sender]));\r\n        }\r\n        _;\r\n    }\r\n\r\n    modifier frozenTransferFromCheck(address _from, address _to, uint256 _value, uint256 balance) {\r\n        if (now < unfreezeTimestamp) {\r\n            require(_value <= balance.sub(frozen[_from]));\r\n        }\r\n        _;\r\n    }\r\n\r\n    /**\r\n     * @dev Modifier to make a function callable only when the contract is not paused. [Exception: crowdsale contract]\r\n     */\r\n    modifier whenNotPaused() {\r\n        require(!paused || msg.sender == crowdsale);\r\n        _;\r\n    }\r\n\r\n    /**\r\n     * @dev Modifier to make a function callable only when the contract is paused.\r\n     */\r\n    modifier whenPaused() {\r\n        require(paused);\r\n        _;\r\n    }\r\n\r\n    /**\r\n     * @dev called by the owner to pause, triggers stopped state\r\n     */\r\n    function pause() onlyOwner whenNotPaused public {\r\n        require(msg.sender != address(0));\r\n        paused = true;\r\n        Pause();\r\n    }\r\n\r\n    /**\r\n     * @dev called by the owner to unpause, returns to normal state\r\n     */\r\n    function unpause() onlyOwner whenPaused public {\r\n        require(msg.sender != address(0));\r\n        paused = false;\r\n        Unpause();\r\n    }\r\n}",
  "sourcePath": "c:\\crypt\\foocoin\\TokeSale\\contracts\\token\\Pausable.sol",
  "compiler": {
    "name": "solc",
    "version": "0.4.19+commit.c4cbbb05.Emscripten.clang"
  },
  "schemaVersion": "2.0.0",
  "updatedAt": "2018-03-01T11:14:28.375Z"
}